{
  "_format": "hh-sol-artifact-1",
  "contractName": "CampaignHelper",
  "sourceName": "contracts/campaignHelper.sol",
  "abi": [
    {
      "constant": false,
      "inputs": [
        {
          "name": "_campaignId",
          "type": "uint256"
        }
      ],
      "name": "levelUp",
      "outputs": [],
      "payable": true,
      "stateMutability": "payable",
      "type": "function"
    },
    {
      "constant": true,
      "inputs": [
        {
          "name": "",
          "type": "uint256"
        }
      ],
      "name": "campaigns",
      "outputs": [
        {
          "name": "name",
          "type": "string"
        },
        {
          "name": "dna",
          "type": "uint256"
        },
        {
          "name": "level",
          "type": "uint32"
        },
        {
          "name": "readyTime",
          "type": "uint32"
        },
        {
          "name": "winCount",
          "type": "uint16"
        },
        {
          "name": "lossCount",
          "type": "uint16"
        }
      ],
      "payable": false,
      "stateMutability": "view",
      "type": "function"
    },
    {
      "constant": false,
      "inputs": [
        {
          "name": "_campaignId",
          "type": "uint256"
        },
        {
          "name": "_kittyId",
          "type": "uint256"
        }
      ],
      "name": "feedOnKitty",
      "outputs": [],
      "payable": false,
      "stateMutability": "nonpayable",
      "type": "function"
    },
    {
      "constant": true,
      "inputs": [],
      "name": "totalSupply",
      "outputs": [
        {
          "name": "",
          "type": "uint256"
        }
      ],
      "payable": false,
      "stateMutability": "view",
      "type": "function"
    },
    {
      "constant": false,
      "inputs": [],
      "name": "withdraw",
      "outputs": [],
      "payable": false,
      "stateMutability": "nonpayable",
      "type": "function"
    },
    {
      "constant": true,
      "inputs": [
        {
          "name": "_owner",
          "type": "address"
        }
      ],
      "name": "getCampaignsByOwner",
      "outputs": [
        {
          "name": "",
          "type": "uint256[]"
        }
      ],
      "payable": false,
      "stateMutability": "view",
      "type": "function"
    },
    {
      "constant": false,
      "inputs": [
        {
          "name": "_address",
          "type": "address"
        }
      ],
      "name": "setKittyContractAddress",
      "outputs": [],
      "payable": false,
      "stateMutability": "nonpayable",
      "type": "function"
    },
    {
      "constant": false,
      "inputs": [
        {
          "name": "_campaignId",
          "type": "uint256"
        },
        {
          "name": "_newDna",
          "type": "uint256"
        }
      ],
      "name": "changeDna",
      "outputs": [],
      "payable": false,
      "stateMutability": "nonpayable",
      "type": "function"
    },
    {
      "constant": false,
      "inputs": [
        {
          "name": "_seconds",
          "type": "uint256"
        }
      ],
      "name": "setCooldownTime",
      "outputs": [],
      "payable": false,
      "stateMutability": "nonpayable",
      "type": "function"
    },
    {
      "constant": false,
      "inputs": [],
      "name": "renounceOwnership",
      "outputs": [],
      "payable": false,
      "stateMutability": "nonpayable",
      "type": "function"
    },
    {
      "constant": false,
      "inputs": [
        {
          "name": "_name",
          "type": "string"
        }
      ],
      "name": "createRandomCampaign",
      "outputs": [],
      "payable": false,
      "stateMutability": "nonpayable",
      "type": "function"
    },
    {
      "constant": true,
      "inputs": [],
      "name": "owner",
      "outputs": [
        {
          "name": "",
          "type": "address"
        }
      ],
      "payable": false,
      "stateMutability": "view",
      "type": "function"
    },
    {
      "constant": true,
      "inputs": [],
      "name": "isOwner",
      "outputs": [
        {
          "name": "",
          "type": "bool"
        }
      ],
      "payable": false,
      "stateMutability": "view",
      "type": "function"
    },
    {
      "constant": true,
      "inputs": [
        {
          "name": "",
          "type": "uint256"
        }
      ],
      "name": "campaignToOwner",
      "outputs": [
        {
          "name": "",
          "type": "address"
        }
      ],
      "payable": false,
      "stateMutability": "view",
      "type": "function"
    },
    {
      "constant": false,
      "inputs": [
        {
          "name": "_campaignId",
          "type": "uint256"
        },
        {
          "name": "_newName",
          "type": "string"
        }
      ],
      "name": "changeName",
      "outputs": [],
      "payable": false,
      "stateMutability": "nonpayable",
      "type": "function"
    },
    {
      "constant": false,
      "inputs": [
        {
          "name": "_fee",
          "type": "uint256"
        }
      ],
      "name": "setLevelUpFee",
      "outputs": [],
      "payable": false,
      "stateMutability": "nonpayable",
      "type": "function"
    },
    {
      "constant": false,
      "inputs": [
        {
          "name": "newOwner",
          "type": "address"
        }
      ],
      "name": "transferOwnership",
      "outputs": [],
      "payable": false,
      "stateMutability": "nonpayable",
      "type": "function"
    },
    {
      "anonymous": false,
      "inputs": [
        {
          "indexed": false,
          "name": "campaignId",
          "type": "uint256"
        },
        {
          "indexed": false,
          "name": "name",
          "type": "string"
        },
        {
          "indexed": false,
          "name": "dna",
          "type": "uint256"
        }
      ],
      "name": "NewCampaign",
      "type": "event"
    },
    {
      "anonymous": false,
      "inputs": [
        {
          "indexed": true,
          "name": "previousOwner",
          "type": "address"
        },
        {
          "indexed": true,
          "name": "newOwner",
          "type": "address"
        }
      ],
      "name": "OwnershipTransferred",
      "type": "event"
    }
  ],
  "bytecode": "0x60806040526010600155600154600a0a600255607860035566038d7ea4c68000600855336000806101000a81548173ffffffffffffffffffffffffffffffffffffffff021916908373ffffffffffffffffffffffffffffffffffffffff1602179055506000809054906101000a900473ffffffffffffffffffffffffffffffffffffffff1673ffffffffffffffffffffffffffffffffffffffff16600073ffffffffffffffffffffffffffffffffffffffff167f8be0079c531659141344cd1fd0a4f28419497f9722a3daafe3b4186f6b6457e060405160405180910390a361176e806100ed6000396000f3fe6080604052600436106100eb576000357c0100000000000000000000000000000000000000000000000000000000900480630ce90ec2146100f0578063141961bc1461011e57806317a7f4cc1461021d57806318160ddd146102625780633ccfd60b1461028d57806351bdebb9146102a45780635f4623f11461034a5780635faf28801461039b5780636ff73201146103e0578063715018a61461041b578063763f8dec146104325780638da5cb5b146104fa5780638f32d59b14610551578063afb0d86e14610580578063c39cbef1146105fb578063ccf670f81461068b578063f2fde38b146106c6575b600080fd5b61011c6004803603602081101561010657600080fd5b8101908080359060200190929190505050610717565b005b34801561012a57600080fd5b506101576004803603602081101561014157600080fd5b81019080803590602001909291905050506107b2565b60405180806020018781526020018663ffffffff1663ffffffff1681526020018563ffffffff1663ffffffff1681526020018461ffff1661ffff1681526020018361ffff1661ffff168152602001828103825288818151815260200191508051906020019080838360005b838110156101dd5780820151818401526020810190506101c2565b50505050905090810190601f16801561020a5780820380516001836020036101000a031916815260200191505b5097505050505050505060405180910390f35b34801561022957600080fd5b506102606004803603604081101561024057600080fd5b8101908080359060200190929190803590602001909291905050506108d1565b005b34801561026e57600080fd5b50610277610945565b6040518082815260200191505060405180910390f35b34801561029957600080fd5b506102a2610952565b005b3480156102b057600080fd5b506102f3600480360360208110156102c757600080fd5b81019080803573ffffffffffffffffffffffffffffffffffffffff1690602001909291905050506109d2565b6040518080602001828103825283818151815260200191508051906020019060200280838360005b8381101561033657808201518184015260208101905061031b565b505050509050019250505060405180910390f35b34801561035657600080fd5b506103996004803603602081101561036d57600080fd5b81019080803573ffffffffffffffffffffffffffffffffffffffff169060200190929190505050610b03565b005b3480156103a757600080fd5b506103de600480360360408110156103be57600080fd5b810190808035906020019092919080359060200190929190505050610b5a565b005b3480156103ec57600080fd5b506104196004803603602081101561040357600080fd5b8101908080359060200190929190505050610c3c565b005b34801561042757600080fd5b50610430610c59565b005b34801561043e57600080fd5b506104f86004803603602081101561045557600080fd5b810190808035906020019064010000000081111561047257600080fd5b82018360208201111561048457600080fd5b803590602001918460018302840111640100000000831117156104a657600080fd5b91908080601f016020809104026020016040519081016040528093929190818152602001838380828437600081840152601f19601f820116905080830192505050505050509192919290505050610d2b565b005b34801561050657600080fd5b5061050f610d57565b604051808273ffffffffffffffffffffffffffffffffffffffff1673ffffffffffffffffffffffffffffffffffffffff16815260200191505060405180910390f35b34801561055d57600080fd5b50610566610d80565b604051808215151515815260200191505060405180910390f35b34801561058c57600080fd5b506105b9600480360360208110156105a357600080fd5b8101908080359060200190929190505050610dd7565b604051808273ffffffffffffffffffffffffffffffffffffffff1673ffffffffffffffffffffffffffffffffffffffff16815260200191505060405180910390f35b34801561060757600080fd5b506106896004803603604081101561061e57600080fd5b81019080803590602001909291908035906020019064010000000081111561064557600080fd5b82018360208201111561065757600080fd5b8035906020019184600183028401116401000000008311171561067957600080fd5b9091929391929390505050610e0a565b005b34801561069757600080fd5b506106c4600480360360208110156106ae57600080fd5b8101908080359060200190929190505050610ef8565b005b3480156106d257600080fd5b50610715600480360360208110156106e957600080fd5b81019080803573ffffffffffffffffffffffffffffffffffffffff169060200190929190505050610f15565b005b6008543414151561072757600080fd5b610771600160048381548110151561073b57fe5b906000526020600020906003020160020160009054906101000a900463ffffffff1663ffffffff16610f3490919063ffffffff16565b60048281548110151561078057fe5b906000526020600020906003020160020160006101000a81548163ffffffff021916908363ffffffff16021790555050565b6004818154811015156107c157fe5b9060005260206000209060030201600091509050806000018054600181600116156101000203166002900480601f01602080910402602001604051908101604052809291908181526020018280546001816001161561010002031660029004801561086d5780601f106108425761010080835404028352916020019161086d565b820191906000526020600020905b81548152906001019060200180831161085057829003601f168201915b5050505050908060010154908060020160009054906101000a900463ffffffff16908060020160049054906101000a900463ffffffff16908060020160089054906101000a900461ffff169080600201600a9054906101000a900461ffff16905086565b600081604051602001808281526020019150506040516020818303038152906040528051906020012060019004905061094083826040805190810160405280600581526020017f6b69747479000000000000000000000000000000000000000000000000000000815250610f5e565b505050565b6000600480549050905090565b61095a610d80565b151561096557600080fd5b600061096f610d57565b90508073ffffffffffffffffffffffffffffffffffffffff166108fc3073ffffffffffffffffffffffffffffffffffffffff16319081150290604051600060405180830381858888f193505050501580156109ce573d6000803e3d6000fd5b5050565b606080600660008473ffffffffffffffffffffffffffffffffffffffff1673ffffffffffffffffffffffffffffffffffffffff16815260200190815260200160002054604051908082528060200260200182016040528015610a435781602001602082028038833980820191505090505b509050600080905060008090505b600480549050811015610af8578473ffffffffffffffffffffffffffffffffffffffff166005600083815260200190815260200160002060009054906101000a900473ffffffffffffffffffffffffffffffffffffffff1673ffffffffffffffffffffffffffffffffffffffff161415610aeb57808383815181101515610ad457fe5b906020019060200201818152505081806001019250505b8080600101915050610a51565b508192505050919050565b610b0b610d80565b1515610b1657600080fd5b80600760006101000a81548173ffffffffffffffffffffffffffffffffffffffff021916908373ffffffffffffffffffffffffffffffffffffffff16021790555050565b60148281600482815481101515610b6d57fe5b906000526020600020906003020160020160009054906101000a900463ffffffff1663ffffffff1610151515610ba257600080fd5b836005600082815260200190815260200160002060009054906101000a900473ffffffffffffffffffffffffffffffffffffffff1673ffffffffffffffffffffffffffffffffffffffff163373ffffffffffffffffffffffffffffffffffffffff16141515610c1057600080fd5b83600486815481101515610c2057fe5b9060005260206000209060030201600101819055505050505050565b610c44610d80565b1515610c4f57600080fd5b8060038190555050565b610c61610d80565b1515610c6c57600080fd5b600073ffffffffffffffffffffffffffffffffffffffff166000809054906101000a900473ffffffffffffffffffffffffffffffffffffffff1673ffffffffffffffffffffffffffffffffffffffff167f8be0079c531659141344cd1fd0a4f28419497f9722a3daafe3b4186f6b6457e060405160405180910390a360008060006101000a81548173ffffffffffffffffffffffffffffffffffffffff021916908373ffffffffffffffffffffffffffffffffffffffff160217905550565b6000610d368261114e565b9050606481811515610d4457fe5b0681039050610d5382826111e1565b5050565b60008060009054906101000a900473ffffffffffffffffffffffffffffffffffffffff16905090565b60008060009054906101000a900473ffffffffffffffffffffffffffffffffffffffff1673ffffffffffffffffffffffffffffffffffffffff163373ffffffffffffffffffffffffffffffffffffffff1614905090565b60056020528060005260406000206000915054906101000a900473ffffffffffffffffffffffffffffffffffffffff1681565b60028381600482815481101515610e1d57fe5b906000526020600020906003020160020160009054906101000a900463ffffffff1663ffffffff1610151515610e5257600080fd5b846005600082815260200190815260200160002060009054906101000a900473ffffffffffffffffffffffffffffffffffffffff1673ffffffffffffffffffffffffffffffffffffffff163373ffffffffffffffffffffffffffffffffffffffff16141515610ec057600080fd5b8484600488815481101515610ed157fe5b90600052602060002090600302016000019190610eef92919061161d565b50505050505050565b610f00610d80565b1515610f0b57600080fd5b8060088190555050565b610f1d610d80565b1515610f2857600080fd5b610f31816114b4565b50565b60008082840190508363ffffffff168163ffffffff1610151515610f5457fe5b8091505092915050565b826005600082815260200190815260200160002060009054906101000a900473ffffffffffffffffffffffffffffffffffffffff1673ffffffffffffffffffffffffffffffffffffffff163373ffffffffffffffffffffffffffffffffffffffff16141515610fcc57600080fd5b6000600485815481101515610fdd57fe5b90600052602060002090600302019050610ff6816115ae565b151561100157600080fd5b6002548481151561100e57fe5b069350600060028583600101540181151561102557fe5b04905060405160200180807f6b69747479000000000000000000000000000000000000000000000000000000815250600501905060405160208183030381529060405280519060200120846040516020018082805190602001908083835b6020831015156110a85780518252602082019150602081019050602083039250611083565b6001836020036101000a0380198251168184511680821785525050505050509050019150506040516020818303038152906040528051906020012014156110fe5760636064828115156110f757fe5b0682030190505b61113d6040805190810160405280600681526020017f4e6f4e616d650000000000000000000000000000000000000000000000000000815250826111e1565b611146826115d5565b505050505050565b600080826040516020018082805190602001908083835b60208310151561118a5780518252602082019150602081019050602083039250611165565b6001836020036101000a03801982511681845116808217855250505050505090500191505060405160208183030381529060405280519060200120600190049050600254818115156111d857fe5b06915050919050565b60006001600460c060405190810160405280868152602001858152602001600163ffffffff168152602001600354420163ffffffff168152602001600061ffff168152602001600061ffff1681525090806001815401808255809150509060018203906000526020600020906003020160009091929091909150600082015181600001908051906020019061127792919061169d565b506020820151816001015560408201518160020160006101000a81548163ffffffff021916908363ffffffff16021790555060608201518160020160046101000a81548163ffffffff021916908363ffffffff16021790555060808201518160020160086101000a81548161ffff021916908361ffff16021790555060a082015181600201600a6101000a81548161ffff021916908361ffff1602179055505050039050336005600083815260200190815260200160002060006101000a81548173ffffffffffffffffffffffffffffffffffffffff021916908373ffffffffffffffffffffffffffffffffffffffff1602179055506113c06001600660003373ffffffffffffffffffffffffffffffffffffffff1673ffffffffffffffffffffffffffffffffffffffff168152602001908152602001600020546115ff90919063ffffffff16565b600660003373ffffffffffffffffffffffffffffffffffffffff1673ffffffffffffffffffffffffffffffffffffffff168152602001908152602001600020819055507f2305184e6d194b498b9c12343a048147ce1300f3df63dba70b67b730065cb3e68184846040518084815260200180602001838152602001828103825284818151815260200191508051906020019080838360005b83811015611473578082015181840152602081019050611458565b50505050905090810190601f1680156114a05780820380516001836020036101000a031916815260200191505b5094505050505060405180910390a1505050565b600073ffffffffffffffffffffffffffffffffffffffff168173ffffffffffffffffffffffffffffffffffffffff16141515156114f057600080fd5b8073ffffffffffffffffffffffffffffffffffffffff166000809054906101000a900473ffffffffffffffffffffffffffffffffffffffff1673ffffffffffffffffffffffffffffffffffffffff167f8be0079c531659141344cd1fd0a4f28419497f9722a3daafe3b4186f6b6457e060405160405180910390a3806000806101000a81548173ffffffffffffffffffffffffffffffffffffffff021916908373ffffffffffffffffffffffffffffffffffffffff16021790555050565b6000428260020160049054906101000a900463ffffffff1663ffffffff1611159050919050565b60035442018160020160046101000a81548163ffffffff021916908363ffffffff16021790555050565b600080828401905083811015151561161357fe5b8091505092915050565b828054600181600116156101000203166002900490600052602060002090601f016020900481019282601f1061165e57803560ff191683800117855561168c565b8280016001018555821561168c579182015b8281111561168b578235825591602001919060010190611670565b5b509050611699919061171d565b5090565b828054600181600116156101000203166002900490600052602060002090601f016020900481019282601f106116de57805160ff191683800117855561170c565b8280016001018555821561170c579182015b8281111561170b5782518255916020019190600101906116f0565b5b509050611719919061171d565b5090565b61173f91905b8082111561173b576000816000905550600101611723565b5090565b9056fea165627a7a72305820ec6380fb81afea93f00806238bd51695c36608feb5913d24e659606d446f28370029",
  "linkReferences": {},
  "deployedLinkReferences": {}
}