{
  "_format": "hh-sol-artifact-1",
  "contractName": "CampaignFeeding",
  "sourceName": "contracts/campaignfeeding.sol",
  "abi": [
    {
      "constant": true,
      "inputs": [
        {
          "name": "",
          "type": "uint256"
        }
      ],
      "name": "campaigns",
      "outputs": [
        {
          "name": "name",
          "type": "string"
        },
        {
          "name": "dna",
          "type": "uint256"
        },
        {
          "name": "level",
          "type": "uint32"
        },
        {
          "name": "readyTime",
          "type": "uint32"
        },
        {
          "name": "winCount",
          "type": "uint16"
        },
        {
          "name": "lossCount",
          "type": "uint16"
        }
      ],
      "payable": false,
      "stateMutability": "view",
      "type": "function"
    },
    {
      "constant": false,
      "inputs": [
        {
          "name": "_campaignId",
          "type": "uint256"
        },
        {
          "name": "_kittyId",
          "type": "uint256"
        }
      ],
      "name": "feedOnKitty",
      "outputs": [],
      "payable": false,
      "stateMutability": "nonpayable",
      "type": "function"
    },
    {
      "constant": true,
      "inputs": [],
      "name": "totalSupply",
      "outputs": [
        {
          "name": "",
          "type": "uint256"
        }
      ],
      "payable": false,
      "stateMutability": "view",
      "type": "function"
    },
    {
      "constant": false,
      "inputs": [
        {
          "name": "_address",
          "type": "address"
        }
      ],
      "name": "setKittyContractAddress",
      "outputs": [],
      "payable": false,
      "stateMutability": "nonpayable",
      "type": "function"
    },
    {
      "constant": false,
      "inputs": [
        {
          "name": "_seconds",
          "type": "uint256"
        }
      ],
      "name": "setCooldownTime",
      "outputs": [],
      "payable": false,
      "stateMutability": "nonpayable",
      "type": "function"
    },
    {
      "constant": false,
      "inputs": [],
      "name": "renounceOwnership",
      "outputs": [],
      "payable": false,
      "stateMutability": "nonpayable",
      "type": "function"
    },
    {
      "constant": false,
      "inputs": [
        {
          "name": "_name",
          "type": "string"
        }
      ],
      "name": "createRandomCampaign",
      "outputs": [],
      "payable": false,
      "stateMutability": "nonpayable",
      "type": "function"
    },
    {
      "constant": true,
      "inputs": [],
      "name": "owner",
      "outputs": [
        {
          "name": "",
          "type": "address"
        }
      ],
      "payable": false,
      "stateMutability": "view",
      "type": "function"
    },
    {
      "constant": true,
      "inputs": [],
      "name": "isOwner",
      "outputs": [
        {
          "name": "",
          "type": "bool"
        }
      ],
      "payable": false,
      "stateMutability": "view",
      "type": "function"
    },
    {
      "constant": true,
      "inputs": [
        {
          "name": "",
          "type": "uint256"
        }
      ],
      "name": "campaignToOwner",
      "outputs": [
        {
          "name": "",
          "type": "address"
        }
      ],
      "payable": false,
      "stateMutability": "view",
      "type": "function"
    },
    {
      "constant": false,
      "inputs": [
        {
          "name": "newOwner",
          "type": "address"
        }
      ],
      "name": "transferOwnership",
      "outputs": [],
      "payable": false,
      "stateMutability": "nonpayable",
      "type": "function"
    },
    {
      "anonymous": false,
      "inputs": [
        {
          "indexed": false,
          "name": "campaignId",
          "type": "uint256"
        },
        {
          "indexed": false,
          "name": "name",
          "type": "string"
        },
        {
          "indexed": false,
          "name": "dna",
          "type": "uint256"
        }
      ],
      "name": "NewCampaign",
      "type": "event"
    },
    {
      "anonymous": false,
      "inputs": [
        {
          "indexed": true,
          "name": "previousOwner",
          "type": "address"
        },
        {
          "indexed": true,
          "name": "newOwner",
          "type": "address"
        }
      ],
      "name": "OwnershipTransferred",
      "type": "event"
    }
  ],
  "bytecode": "0x60806040526010600155600154600a0a6002556078600355336000806101000a81548173ffffffffffffffffffffffffffffffffffffffff021916908373ffffffffffffffffffffffffffffffffffffffff1602179055506000809054906101000a900473ffffffffffffffffffffffffffffffffffffffff1673ffffffffffffffffffffffffffffffffffffffff16600073ffffffffffffffffffffffffffffffffffffffff167f8be0079c531659141344cd1fd0a4f28419497f9722a3daafe3b4186f6b6457e060405160405180910390a361104e806100e26000396000f3fe6080604052600436106100a9576000357c010000000000000000000000000000000000000000000000000000000090048063141961bc146100ae57806317a7f4cc146101ad57806318160ddd146101f25780635f4623f11461021d5780636ff732011461026e578063715018a6146102a9578063763f8dec146102c05780638da5cb5b146103885780638f32d59b146103df578063afb0d86e1461040e578063f2fde38b14610489575b600080fd5b3480156100ba57600080fd5b506100e7600480360360208110156100d157600080fd5b81019080803590602001909291905050506104da565b60405180806020018781526020018663ffffffff1663ffffffff1681526020018563ffffffff1663ffffffff1681526020018461ffff1661ffff1681526020018361ffff1661ffff168152602001828103825288818151815260200191508051906020019080838360005b8381101561016d578082015181840152602081019050610152565b50505050905090810190601f16801561019a5780820380516001836020036101000a031916815260200191505b5097505050505050505060405180910390f35b3480156101b957600080fd5b506101f0600480360360408110156101d057600080fd5b8101908080359060200190929190803590602001909291905050506105f9565b005b3480156101fe57600080fd5b5061020761066d565b6040518082815260200191505060405180910390f35b34801561022957600080fd5b5061026c6004803603602081101561024057600080fd5b81019080803573ffffffffffffffffffffffffffffffffffffffff16906020019092919050505061067a565b005b34801561027a57600080fd5b506102a76004803603602081101561029157600080fd5b81019080803590602001909291905050506106d1565b005b3480156102b557600080fd5b506102be6106ee565b005b3480156102cc57600080fd5b50610386600480360360208110156102e357600080fd5b810190808035906020019064010000000081111561030057600080fd5b82018360208201111561031257600080fd5b8035906020019184600183028401116401000000008311171561033457600080fd5b91908080601f016020809104026020016040519081016040528093929190818152602001838380828437600081840152601f19601f8201169050808301925050505050505091929192905050506107c0565b005b34801561039457600080fd5b5061039d6107ec565b604051808273ffffffffffffffffffffffffffffffffffffffff1673ffffffffffffffffffffffffffffffffffffffff16815260200191505060405180910390f35b3480156103eb57600080fd5b506103f4610815565b604051808215151515815260200191505060405180910390f35b34801561041a57600080fd5b506104476004803603602081101561043157600080fd5b810190808035906020019092919050505061086c565b604051808273ffffffffffffffffffffffffffffffffffffffff1673ffffffffffffffffffffffffffffffffffffffff16815260200191505060405180910390f35b34801561049557600080fd5b506104d8600480360360208110156104ac57600080fd5b81019080803573ffffffffffffffffffffffffffffffffffffffff16906020019092919050505061089f565b005b6004818154811015156104e957fe5b9060005260206000209060030201600091509050806000018054600181600116156101000203166002900480601f0160208091040260200160405190810160405280929190818152602001828054600181600116156101000203166002900480156105955780601f1061056a57610100808354040283529160200191610595565b820191906000526020600020905b81548152906001019060200180831161057857829003601f168201915b5050505050908060010154908060020160009054906101000a900463ffffffff16908060020160049054906101000a900463ffffffff16908060020160089054906101000a900461ffff169080600201600a9054906101000a900461ffff16905086565b600081604051602001808281526020019150506040516020818303038152906040528051906020012060019004905061066883826040805190810160405280600581526020017f6b697474790000000000000000000000000000000000000000000000000000008152506108be565b505050565b6000600480549050905090565b610682610815565b151561068d57600080fd5b80600760006101000a81548173ffffffffffffffffffffffffffffffffffffffff021916908373ffffffffffffffffffffffffffffffffffffffff16021790555050565b6106d9610815565b15156106e457600080fd5b8060038190555050565b6106f6610815565b151561070157600080fd5b600073ffffffffffffffffffffffffffffffffffffffff166000809054906101000a900473ffffffffffffffffffffffffffffffffffffffff1673ffffffffffffffffffffffffffffffffffffffff167f8be0079c531659141344cd1fd0a4f28419497f9722a3daafe3b4186f6b6457e060405160405180910390a360008060006101000a81548173ffffffffffffffffffffffffffffffffffffffff021916908373ffffffffffffffffffffffffffffffffffffffff160217905550565b60006107cb82610aae565b90506064818115156107d957fe5b06810390506107e88282610b41565b5050565b60008060009054906101000a900473ffffffffffffffffffffffffffffffffffffffff16905090565b60008060009054906101000a900473ffffffffffffffffffffffffffffffffffffffff1673ffffffffffffffffffffffffffffffffffffffff163373ffffffffffffffffffffffffffffffffffffffff1614905090565b60056020528060005260406000206000915054906101000a900473ffffffffffffffffffffffffffffffffffffffff1681565b6108a7610815565b15156108b257600080fd5b6108bb81610e14565b50565b826005600082815260200190815260200160002060009054906101000a900473ffffffffffffffffffffffffffffffffffffffff1673ffffffffffffffffffffffffffffffffffffffff163373ffffffffffffffffffffffffffffffffffffffff1614151561092c57600080fd5b600060048581548110151561093d57fe5b9060005260206000209060030201905061095681610f0e565b151561096157600080fd5b6002548481151561096e57fe5b069350600060028583600101540181151561098557fe5b04905060405160200180807f6b69747479000000000000000000000000000000000000000000000000000000815250600501905060405160208183030381529060405280519060200120846040516020018082805190602001908083835b602083101515610a0857805182526020820191506020810190506020830392506109e3565b6001836020036101000a038019825116818451168082178552505050505050905001915050604051602081830303815290604052805190602001201415610a5e576063606482811515610a5757fe5b0682030190505b610a9d6040805190810160405280600681526020017f4e6f4e616d65000000000000000000000000000000000000000000000000000081525082610b41565b610aa682610f35565b505050505050565b600080826040516020018082805190602001908083835b602083101515610aea5780518252602082019150602081019050602083039250610ac5565b6001836020036101000a0380198251168184511680821785525050505050509050019150506040516020818303038152906040528051906020012060019004905060025481811515610b3857fe5b06915050919050565b60006001600460c060405190810160405280868152602001858152602001600163ffffffff168152602001600354420163ffffffff168152602001600061ffff168152602001600061ffff16815250908060018154018082558091505090600182039060005260206000209060030201600090919290919091506000820151816000019080519060200190610bd7929190610f7d565b506020820151816001015560408201518160020160006101000a81548163ffffffff021916908363ffffffff16021790555060608201518160020160046101000a81548163ffffffff021916908363ffffffff16021790555060808201518160020160086101000a81548161ffff021916908361ffff16021790555060a082015181600201600a6101000a81548161ffff021916908361ffff1602179055505050039050336005600083815260200190815260200160002060006101000a81548173ffffffffffffffffffffffffffffffffffffffff021916908373ffffffffffffffffffffffffffffffffffffffff160217905550610d206001600660003373ffffffffffffffffffffffffffffffffffffffff1673ffffffffffffffffffffffffffffffffffffffff16815260200190815260200160002054610f5f90919063ffffffff16565b600660003373ffffffffffffffffffffffffffffffffffffffff1673ffffffffffffffffffffffffffffffffffffffff168152602001908152602001600020819055507f2305184e6d194b498b9c12343a048147ce1300f3df63dba70b67b730065cb3e68184846040518084815260200180602001838152602001828103825284818151815260200191508051906020019080838360005b83811015610dd3578082015181840152602081019050610db8565b50505050905090810190601f168015610e005780820380516001836020036101000a031916815260200191505b5094505050505060405180910390a1505050565b600073ffffffffffffffffffffffffffffffffffffffff168173ffffffffffffffffffffffffffffffffffffffff1614151515610e5057600080fd5b8073ffffffffffffffffffffffffffffffffffffffff166000809054906101000a900473ffffffffffffffffffffffffffffffffffffffff1673ffffffffffffffffffffffffffffffffffffffff167f8be0079c531659141344cd1fd0a4f28419497f9722a3daafe3b4186f6b6457e060405160405180910390a3806000806101000a81548173ffffffffffffffffffffffffffffffffffffffff021916908373ffffffffffffffffffffffffffffffffffffffff16021790555050565b6000428260020160049054906101000a900463ffffffff1663ffffffff1611159050919050565b60035442018160020160046101000a81548163ffffffff021916908363ffffffff16021790555050565b6000808284019050838110151515610f7357fe5b8091505092915050565b828054600181600116156101000203166002900490600052602060002090601f016020900481019282601f10610fbe57805160ff1916838001178555610fec565b82800160010185558215610fec579182015b82811115610feb578251825591602001919060010190610fd0565b5b509050610ff99190610ffd565b5090565b61101f91905b8082111561101b576000816000905550600101611003565b5090565b9056fea165627a7a72305820fd33275f205ce7a247cb4fbb7f0b74eca6786cc604fc72a817baae9dfa6bae1d0029",
  "linkReferences": {},
  "deployedLinkReferences": {}
}