{
  "_format": "hh-sol-artifact-1",
  "contractName": "BlockStarter",
  "sourceName": "contracts/BlockStarter.sol",
  "abi": [
    {
      "constant": false,
      "inputs": [
        {
          "name": "_approved",
          "type": "address"
        },
        {
          "name": "_tokenId",
          "type": "uint256"
        }
      ],
      "name": "approve",
      "outputs": [],
      "payable": true,
      "stateMutability": "payable",
      "type": "function"
    },
    {
      "constant": false,
      "inputs": [
        {
          "name": "_campaignId",
          "type": "uint256"
        }
      ],
      "name": "levelUp",
      "outputs": [],
      "payable": true,
      "stateMutability": "payable",
      "type": "function"
    },
    {
      "constant": true,
      "inputs": [
        {
          "name": "",
          "type": "uint256"
        }
      ],
      "name": "campaigns",
      "outputs": [
        {
          "name": "name",
          "type": "string"
        },
        {
          "name": "dna",
          "type": "uint256"
        },
        {
          "name": "level",
          "type": "uint32"
        },
        {
          "name": "readyTime",
          "type": "uint32"
        },
        {
          "name": "winCount",
          "type": "uint16"
        },
        {
          "name": "lossCount",
          "type": "uint16"
        }
      ],
      "payable": false,
      "stateMutability": "view",
      "type": "function"
    },
    {
      "constant": false,
      "inputs": [
        {
          "name": "_campaignId",
          "type": "uint256"
        },
        {
          "name": "_kittyId",
          "type": "uint256"
        }
      ],
      "name": "feedOnKitty",
      "outputs": [],
      "payable": false,
      "stateMutability": "nonpayable",
      "type": "function"
    },
    {
      "constant": false,
      "inputs": [
        {
          "name": "_from",
          "type": "address"
        },
        {
          "name": "_to",
          "type": "address"
        },
        {
          "name": "_tokenId",
          "type": "uint256"
        }
      ],
      "name": "transferFrom",
      "outputs": [],
      "payable": true,
      "stateMutability": "payable",
      "type": "function"
    },
    {
      "constant": false,
      "inputs": [],
      "name": "withdraw",
      "outputs": [],
      "payable": false,
      "stateMutability": "nonpayable",
      "type": "function"
    },
    {
      "constant": true,
      "inputs": [
        {
          "name": "_owner",
          "type": "address"
        }
      ],
      "name": "getCampaignsByOwner",
      "outputs": [
        {
          "name": "",
          "type": "uint256[]"
        }
      ],
      "payable": false,
      "stateMutability": "view",
      "type": "function"
    },
    {
      "constant": false,
      "inputs": [
        {
          "name": "_address",
          "type": "address"
        }
      ],
      "name": "setKittyContractAddress",
      "outputs": [],
      "payable": false,
      "stateMutability": "nonpayable",
      "type": "function"
    },
    {
      "constant": false,
      "inputs": [
        {
          "name": "_campaignId",
          "type": "uint256"
        },
        {
          "name": "_newDna",
          "type": "uint256"
        }
      ],
      "name": "changeDna",
      "outputs": [],
      "payable": false,
      "stateMutability": "nonpayable",
      "type": "function"
    },
    {
      "constant": true,
      "inputs": [
        {
          "name": "_tokenId",
          "type": "uint256"
        }
      ],
      "name": "ownerOf",
      "outputs": [
        {
          "name": "",
          "type": "address"
        }
      ],
      "payable": false,
      "stateMutability": "view",
      "type": "function"
    },
    {
      "constant": false,
      "inputs": [
        {
          "name": "_seconds",
          "type": "uint256"
        }
      ],
      "name": "setCooldownTime",
      "outputs": [],
      "payable": false,
      "stateMutability": "nonpayable",
      "type": "function"
    },
    {
      "constant": true,
      "inputs": [
        {
          "name": "_owner",
          "type": "address"
        }
      ],
      "name": "balanceOf",
      "outputs": [
        {
          "name": "",
          "type": "uint256"
        }
      ],
      "payable": false,
      "stateMutability": "view",
      "type": "function"
    },
    {
      "constant": false,
      "inputs": [],
      "name": "renounceOwnership",
      "outputs": [],
      "payable": false,
      "stateMutability": "nonpayable",
      "type": "function"
    },
    {
      "constant": false,
      "inputs": [
        {
          "name": "_name",
          "type": "string"
        }
      ],
      "name": "createRandomCampaign",
      "outputs": [],
      "payable": false,
      "stateMutability": "nonpayable",
      "type": "function"
    },
    {
      "constant": true,
      "inputs": [],
      "name": "owner",
      "outputs": [
        {
          "name": "",
          "type": "address"
        }
      ],
      "payable": false,
      "stateMutability": "view",
      "type": "function"
    },
    {
      "constant": true,
      "inputs": [],
      "name": "isOwner",
      "outputs": [
        {
          "name": "",
          "type": "bool"
        }
      ],
      "payable": false,
      "stateMutability": "view",
      "type": "function"
    },
    {
      "constant": true,
      "inputs": [
        {
          "name": "",
          "type": "uint256"
        }
      ],
      "name": "campaignToOwner",
      "outputs": [
        {
          "name": "",
          "type": "address"
        }
      ],
      "payable": false,
      "stateMutability": "view",
      "type": "function"
    },
    {
      "constant": false,
      "inputs": [
        {
          "name": "_campaignId",
          "type": "uint256"
        },
        {
          "name": "_newName",
          "type": "string"
        }
      ],
      "name": "changeName",
      "outputs": [],
      "payable": false,
      "stateMutability": "nonpayable",
      "type": "function"
    },
    {
      "constant": false,
      "inputs": [
        {
          "name": "_fee",
          "type": "uint256"
        }
      ],
      "name": "setLevelUpFee",
      "outputs": [],
      "payable": false,
      "stateMutability": "nonpayable",
      "type": "function"
    },
    {
      "constant": false,
      "inputs": [
        {
          "name": "_campaignId",
          "type": "uint256"
        },
        {
          "name": "_targetId",
          "type": "uint256"
        }
      ],
      "name": "attack",
      "outputs": [],
      "payable": false,
      "stateMutability": "nonpayable",
      "type": "function"
    },
    {
      "constant": false,
      "inputs": [
        {
          "name": "newOwner",
          "type": "address"
        }
      ],
      "name": "transferOwnership",
      "outputs": [],
      "payable": false,
      "stateMutability": "nonpayable",
      "type": "function"
    },
    {
      "anonymous": false,
      "inputs": [
        {
          "indexed": true,
          "name": "_from",
          "type": "address"
        },
        {
          "indexed": true,
          "name": "_to",
          "type": "address"
        },
        {
          "indexed": true,
          "name": "_tokenId",
          "type": "uint256"
        }
      ],
      "name": "Transfer",
      "type": "event"
    },
    {
      "anonymous": false,
      "inputs": [
        {
          "indexed": true,
          "name": "_owner",
          "type": "address"
        },
        {
          "indexed": true,
          "name": "_approved",
          "type": "address"
        },
        {
          "indexed": true,
          "name": "_tokenId",
          "type": "uint256"
        }
      ],
      "name": "Approval",
      "type": "event"
    },
    {
      "anonymous": false,
      "inputs": [
        {
          "indexed": false,
          "name": "campaignId",
          "type": "uint256"
        },
        {
          "indexed": false,
          "name": "name",
          "type": "string"
        },
        {
          "indexed": false,
          "name": "dna",
          "type": "uint256"
        }
      ],
      "name": "NewCampaign",
      "type": "event"
    },
    {
      "anonymous": false,
      "inputs": [
        {
          "indexed": true,
          "name": "previousOwner",
          "type": "address"
        },
        {
          "indexed": true,
          "name": "newOwner",
          "type": "address"
        }
      ],
      "name": "OwnershipTransferred",
      "type": "event"
    }
  ],
  "bytecode": "0x60806040526010600155600154600a0a600255607860035566038d7ea4c6800060085560006009556046600a55336000806101000a81548173ffffffffffffffffffffffffffffffffffffffff021916908373ffffffffffffffffffffffffffffffffffffffff1602179055506000809054906101000a900473ffffffffffffffffffffffffffffffffffffffff1673ffffffffffffffffffffffffffffffffffffffff16600073ffffffffffffffffffffffffffffffffffffffff167f8be0079c531659141344cd1fd0a4f28419497f9722a3daafe3b4186f6b6457e060405160405180910390a3612082806100f76000396000f3fe608060405260043610610117576000357c010000000000000000000000000000000000000000000000000000000090048063095ea7b31461011c5780630ce90ec21461016a578063141961bc1461019857806317a7f4cc1461029757806323b872dd146102dc5780633ccfd60b1461034a57806351bdebb9146103615780635f4623f1146104075780635faf2880146104585780636352211e1461049d5780636ff732011461051857806370a0823114610553578063715018a6146105b8578063763f8dec146105cf5780638da5cb5b146106975780638f32d59b146106ee578063afb0d86e1461071d578063c39cbef114610798578063ccf670f814610828578063e1fa763814610863578063f2fde38b146108a8575b600080fd5b6101686004803603604081101561013257600080fd5b81019080803573ffffffffffffffffffffffffffffffffffffffff169060200190929190803590602001909291905050506108f9565b005b6101966004803603602081101561018057600080fd5b8101908080359060200190929190505050610a19565b005b3480156101a457600080fd5b506101d1600480360360208110156101bb57600080fd5b8101908080359060200190929190505050610ab4565b60405180806020018781526020018663ffffffff1663ffffffff1681526020018563ffffffff1663ffffffff1681526020018461ffff1661ffff1681526020018361ffff1661ffff168152602001828103825288818151815260200191508051906020019080838360005b8381101561025757808201518184015260208101905061023c565b50505050905090810190601f1680156102845780820380516001836020036101000a031916815260200191505b5097505050505050505060405180910390f35b3480156102a357600080fd5b506102da600480360360408110156102ba57600080fd5b810190808035906020019092919080359060200190929190505050610bd3565b005b610348600480360360608110156102f257600080fd5b81019080803573ffffffffffffffffffffffffffffffffffffffff169060200190929190803573ffffffffffffffffffffffffffffffffffffffff16906020019092919080359060200190929190505050610c47565b005b34801561035657600080fd5b5061035f610d2d565b005b34801561036d57600080fd5b506103b06004803603602081101561038457600080fd5b81019080803573ffffffffffffffffffffffffffffffffffffffff169060200190929190505050610dad565b6040518080602001828103825283818151815260200191508051906020019060200280838360005b838110156103f35780820151818401526020810190506103d8565b505050509050019250505060405180910390f35b34801561041357600080fd5b506104566004803603602081101561042a57600080fd5b81019080803573ffffffffffffffffffffffffffffffffffffffff169060200190929190505050610ede565b005b34801561046457600080fd5b5061049b6004803603604081101561047b57600080fd5b810190808035906020019092919080359060200190929190505050610f35565b005b3480156104a957600080fd5b506104d6600480360360208110156104c057600080fd5b8101908080359060200190929190505050611017565b604051808273ffffffffffffffffffffffffffffffffffffffff1673ffffffffffffffffffffffffffffffffffffffff16815260200191505060405180910390f35b34801561052457600080fd5b506105516004803603602081101561053b57600080fd5b8101908080359060200190929190505050611054565b005b34801561055f57600080fd5b506105a26004803603602081101561057657600080fd5b81019080803573ffffffffffffffffffffffffffffffffffffffff169060200190929190505050611071565b6040518082815260200191505060405180910390f35b3480156105c457600080fd5b506105cd6110ba565b005b3480156105db57600080fd5b50610695600480360360208110156105f257600080fd5b810190808035906020019064010000000081111561060f57600080fd5b82018360208201111561062157600080fd5b8035906020019184600183028401116401000000008311171561064357600080fd5b91908080601f016020809104026020016040519081016040528093929190818152602001838380828437600081840152601f19601f82011690508083019250505050505050919291929050505061118c565b005b3480156106a357600080fd5b506106ac6111b8565b604051808273ffffffffffffffffffffffffffffffffffffffff1673ffffffffffffffffffffffffffffffffffffffff16815260200191505060405180910390f35b3480156106fa57600080fd5b506107036111e1565b604051808215151515815260200191505060405180910390f35b34801561072957600080fd5b506107566004803603602081101561074057600080fd5b8101908080359060200190929190505050611238565b604051808273ffffffffffffffffffffffffffffffffffffffff1673ffffffffffffffffffffffffffffffffffffffff16815260200191505060405180910390f35b3480156107a457600080fd5b50610826600480360360408110156107bb57600080fd5b8101908080359060200190929190803590602001906401000000008111156107e257600080fd5b8201836020820111156107f457600080fd5b8035906020019184600183028401116401000000008311171561081657600080fd5b909192939192939050505061126b565b005b34801561083457600080fd5b506108616004803603602081101561084b57600080fd5b8101908080359060200190929190505050611359565b005b34801561086f57600080fd5b506108a66004803603604081101561088657600080fd5b810190808035906020019092919080359060200190929190505050611376565b005b3480156108b457600080fd5b506108f7600480360360208110156108cb57600080fd5b81019080803573ffffffffffffffffffffffffffffffffffffffff16906020019092919050505061160a565b005b806005600082815260200190815260200160002060009054906101000a900473ffffffffffffffffffffffffffffffffffffffff1673ffffffffffffffffffffffffffffffffffffffff163373ffffffffffffffffffffffffffffffffffffffff1614151561096757600080fd5b82600b600084815260200190815260200160002060006101000a81548173ffffffffffffffffffffffffffffffffffffffff021916908373ffffffffffffffffffffffffffffffffffffffff160217905550818373ffffffffffffffffffffffffffffffffffffffff163373ffffffffffffffffffffffffffffffffffffffff167f8c5be1e5ebec7d5bd14f71427d1e84f3dd0314c0f7b2291e5b200ac8c7c3b92560405160405180910390a4505050565b60085434141515610a2957600080fd5b610a736001600483815481101515610a3d57fe5b906000526020600020906003020160020160009054906101000a900463ffffffff1663ffffffff1661162990919063ffffffff16565b600482815481101515610a8257fe5b906000526020600020906003020160020160006101000a81548163ffffffff021916908363ffffffff16021790555050565b600481815481101515610ac357fe5b9060005260206000209060030201600091509050806000018054600181600116156101000203166002900480601f016020809104026020016040519081016040528092919081815260200182805460018160011615610100020316600290048015610b6f5780601f10610b4457610100808354040283529160200191610b6f565b820191906000526020600020905b815481529060010190602001808311610b5257829003601f168201915b5050505050908060010154908060020160009054906101000a900463ffffffff16908060020160049054906101000a900463ffffffff16908060020160089054906101000a900461ffff169080600201600a9054906101000a900461ffff16905086565b6000816040516020018082815260200191505060405160208183030381529060405280519060200120600190049050610c4283826040805190810160405280600581526020017f6b69747479000000000000000000000000000000000000000000000000000000815250611653565b505050565b3373ffffffffffffffffffffffffffffffffffffffff166005600083815260200190815260200160002060009054906101000a900473ffffffffffffffffffffffffffffffffffffffff1673ffffffffffffffffffffffffffffffffffffffff161480610d1257503373ffffffffffffffffffffffffffffffffffffffff16600b600083815260200190815260200160002060009054906101000a900473ffffffffffffffffffffffffffffffffffffffff1673ffffffffffffffffffffffffffffffffffffffff16145b1515610d1d57600080fd5b610d28838383611843565b505050565b610d356111e1565b1515610d4057600080fd5b6000610d4a6111b8565b90508073ffffffffffffffffffffffffffffffffffffffff166108fc3073ffffffffffffffffffffffffffffffffffffffff16319081150290604051600060405180830381858888f19350505050158015610da9573d6000803e3d6000fd5b5050565b606080600660008473ffffffffffffffffffffffffffffffffffffffff1673ffffffffffffffffffffffffffffffffffffffff16815260200190815260200160002054604051908082528060200260200182016040528015610e1e5781602001602082028038833980820191505090505b509050600080905060008090505b600480549050811015610ed3578473ffffffffffffffffffffffffffffffffffffffff166005600083815260200190815260200160002060009054906101000a900473ffffffffffffffffffffffffffffffffffffffff1673ffffffffffffffffffffffffffffffffffffffff161415610ec657808383815181101515610eaf57fe5b906020019060200201818152505081806001019250505b8080600101915050610e2c565b508192505050919050565b610ee66111e1565b1515610ef157600080fd5b80600760006101000a81548173ffffffffffffffffffffffffffffffffffffffff021916908373ffffffffffffffffffffffffffffffffffffffff16021790555050565b60148281600482815481101515610f4857fe5b906000526020600020906003020160020160009054906101000a900463ffffffff1663ffffffff1610151515610f7d57600080fd5b836005600082815260200190815260200160002060009054906101000a900473ffffffffffffffffffffffffffffffffffffffff1673ffffffffffffffffffffffffffffffffffffffff163373ffffffffffffffffffffffffffffffffffffffff16141515610feb57600080fd5b83600486815481101515610ffb57fe5b9060005260206000209060030201600101819055505050505050565b60006005600083815260200190815260200160002060009054906101000a900473ffffffffffffffffffffffffffffffffffffffff169050919050565b61105c6111e1565b151561106757600080fd5b8060038190555050565b6000600660008373ffffffffffffffffffffffffffffffffffffffff1673ffffffffffffffffffffffffffffffffffffffff168152602001908152602001600020549050919050565b6110c26111e1565b15156110cd57600080fd5b600073ffffffffffffffffffffffffffffffffffffffff166000809054906101000a900473ffffffffffffffffffffffffffffffffffffffff1673ffffffffffffffffffffffffffffffffffffffff167f8be0079c531659141344cd1fd0a4f28419497f9722a3daafe3b4186f6b6457e060405160405180910390a360008060006101000a81548173ffffffffffffffffffffffffffffffffffffffff021916908373ffffffffffffffffffffffffffffffffffffffff160217905550565b600061119782611994565b90506064818115156111a557fe5b06810390506111b48282611a27565b5050565b60008060009054906101000a900473ffffffffffffffffffffffffffffffffffffffff16905090565b60008060009054906101000a900473ffffffffffffffffffffffffffffffffffffffff1673ffffffffffffffffffffffffffffffffffffffff163373ffffffffffffffffffffffffffffffffffffffff1614905090565b60056020528060005260406000206000915054906101000a900473ffffffffffffffffffffffffffffffffffffffff1681565b6002838160048281548110151561127e57fe5b906000526020600020906003020160020160009054906101000a900463ffffffff1663ffffffff16101515156112b357600080fd5b846005600082815260200190815260200160002060009054906101000a900473ffffffffffffffffffffffffffffffffffffffff1673ffffffffffffffffffffffffffffffffffffffff163373ffffffffffffffffffffffffffffffffffffffff1614151561132157600080fd5b848460048881548110151561133257fe5b90600052602060002090600302016000019190611350929190611f31565b50505050505050565b6113616111e1565b151561136c57600080fd5b8060088190555050565b816005600082815260200190815260200160002060009054906101000a900473ffffffffffffffffffffffffffffffffffffffff1673ffffffffffffffffffffffffffffffffffffffff163373ffffffffffffffffffffffffffffffffffffffff161415156113e457600080fd5b60006004848154811015156113f557fe5b90600052602060002090600302019050600060048481548110151561141657fe5b9060005260206000209060030201905060006114326064611cfa565b9050600a54811115156115685761146960018460020160089054906101000a900461ffff1661ffff16611da290919063ffffffff16565b8360020160086101000a81548161ffff021916908361ffff1602179055506114b560018460020160009054906101000a900463ffffffff1663ffffffff1661162990919063ffffffff16565b8360020160006101000a81548163ffffffff021916908363ffffffff160217905550611501600183600201600a9054906101000a900461ffff1661ffff16611da290919063ffffffff16565b82600201600a6101000a81548161ffff021916908361ffff1602179055506115638683600101546040805190810160405280600881526020017f63616d706169676e000000000000000000000000000000000000000000000000815250611653565b611602565b611592600184600201600a9054906101000a900461ffff1661ffff16611da290919063ffffffff16565b83600201600a6101000a81548161ffff021916908361ffff1602179055506115da60018360020160089054906101000a900461ffff1661ffff16611da290919063ffffffff16565b8260020160086101000a81548161ffff021916908361ffff16021790555061160183611dc8565b5b505050505050565b6116126111e1565b151561161d57600080fd5b61162681611df2565b50565b60008082840190508363ffffffff168163ffffffff161015151561164957fe5b8091505092915050565b826005600082815260200190815260200160002060009054906101000a900473ffffffffffffffffffffffffffffffffffffffff1673ffffffffffffffffffffffffffffffffffffffff163373ffffffffffffffffffffffffffffffffffffffff161415156116c157600080fd5b60006004858154811015156116d257fe5b906000526020600020906003020190506116eb81611eec565b15156116f657600080fd5b6002548481151561170357fe5b069350600060028583600101540181151561171a57fe5b04905060405160200180807f6b69747479000000000000000000000000000000000000000000000000000000815250600501905060405160208183030381529060405280519060200120846040516020018082805190602001908083835b60208310151561179d5780518252602082019150602081019050602083039250611778565b6001836020036101000a0380198251168184511680821785525050505050509050019150506040516020818303038152906040528051906020012014156117f35760636064828115156117ec57fe5b0682030190505b6118326040805190810160405280600681526020017f4e6f4e616d65000000000000000000000000000000000000000000000000000081525082611a27565b61183b82611dc8565b505050505050565b600660008373ffffffffffffffffffffffffffffffffffffffff1673ffffffffffffffffffffffffffffffffffffffff16815260200190815260200160002060008154809291906001019190505550600660008473ffffffffffffffffffffffffffffffffffffffff1673ffffffffffffffffffffffffffffffffffffffff1681526020019081526020016000206000815480929190600190039190505550816005600083815260200190815260200160002060006101000a81548173ffffffffffffffffffffffffffffffffffffffff021916908373ffffffffffffffffffffffffffffffffffffffff160217905550808273ffffffffffffffffffffffffffffffffffffffff168473ffffffffffffffffffffffffffffffffffffffff167fddf252ad1be2c89b69c2b068fc378daa952ba7f163c4a11628f55a4df523b3ef60405160405180910390a4505050565b600080826040516020018082805190602001908083835b6020831015156119d057805182526020820191506020810190506020830392506119ab565b6001836020036101000a0380198251168184511680821785525050505050509050019150506040516020818303038152906040528051906020012060019004905060025481811515611a1e57fe5b06915050919050565b60006001600460c060405190810160405280868152602001858152602001600163ffffffff168152602001600354420163ffffffff168152602001600061ffff168152602001600061ffff16815250908060018154018082558091505090600182039060005260206000209060030201600090919290919091506000820151816000019080519060200190611abd929190611fb1565b506020820151816001015560408201518160020160006101000a81548163ffffffff021916908363ffffffff16021790555060608201518160020160046101000a81548163ffffffff021916908363ffffffff16021790555060808201518160020160086101000a81548161ffff021916908361ffff16021790555060a082015181600201600a6101000a81548161ffff021916908361ffff1602179055505050039050336005600083815260200190815260200160002060006101000a81548173ffffffffffffffffffffffffffffffffffffffff021916908373ffffffffffffffffffffffffffffffffffffffff160217905550611c066001600660003373ffffffffffffffffffffffffffffffffffffffff1673ffffffffffffffffffffffffffffffffffffffff16815260200190815260200160002054611f1390919063ffffffff16565b600660003373ffffffffffffffffffffffffffffffffffffffff1673ffffffffffffffffffffffffffffffffffffffff168152602001908152602001600020819055507f2305184e6d194b498b9c12343a048147ce1300f3df63dba70b67b730065cb3e68184846040518084815260200180602001838152602001828103825284818151815260200191508051906020019080838360005b83811015611cb9578082015181840152602081019050611c9e565b50505050905090810190601f168015611ce65780820380516001836020036101000a031916815260200191505b5094505050505060405180910390a1505050565b6000611d126001600954611f1390919063ffffffff16565b600981905550814233600954604051602001808481526020018373ffffffffffffffffffffffffffffffffffffffff1673ffffffffffffffffffffffffffffffffffffffff166c0100000000000000000000000002815260140182815260200193505050506040516020818303038152906040528051906020012060019004811515611d9a57fe5b069050919050565b60008082840190508361ffff168161ffff1610151515611dbe57fe5b8091505092915050565b60035442018160020160046101000a81548163ffffffff021916908363ffffffff16021790555050565b600073ffffffffffffffffffffffffffffffffffffffff168173ffffffffffffffffffffffffffffffffffffffff1614151515611e2e57600080fd5b8073ffffffffffffffffffffffffffffffffffffffff166000809054906101000a900473ffffffffffffffffffffffffffffffffffffffff1673ffffffffffffffffffffffffffffffffffffffff167f8be0079c531659141344cd1fd0a4f28419497f9722a3daafe3b4186f6b6457e060405160405180910390a3806000806101000a81548173ffffffffffffffffffffffffffffffffffffffff021916908373ffffffffffffffffffffffffffffffffffffffff16021790555050565b6000428260020160049054906101000a900463ffffffff1663ffffffff1611159050919050565b6000808284019050838110151515611f2757fe5b8091505092915050565b828054600181600116156101000203166002900490600052602060002090601f016020900481019282601f10611f7257803560ff1916838001178555611fa0565b82800160010185558215611fa0579182015b82811115611f9f578235825591602001919060010190611f84565b5b509050611fad9190612031565b5090565b828054600181600116156101000203166002900490600052602060002090601f016020900481019282601f10611ff257805160ff1916838001178555612020565b82800160010185558215612020579182015b8281111561201f578251825591602001919060010190612004565b5b50905061202d9190612031565b5090565b61205391905b8082111561204f576000816000905550600101612037565b5090565b9056fea165627a7a72305820b31c35f51999052744d1e24e60bfbf53bd3d893e4954e2f4dc4f9b177c2ea9980029",
  "linkReferences": {},
  "deployedLinkReferences": {}
}